{
  "contractName": "ScholarLedger",
  "abi": [
    {
      "inputs": [],
      "stateMutability": "nonpayable",
      "type": "constructor"
    },
    {
      "anonymous": false,
      "inputs": [
        {
          "indexed": true,
          "internalType": "address",
          "name": "student",
          "type": "address"
        },
        {
          "indexed": false,
          "internalType": "bytes32",
          "name": "documentHash",
          "type": "bytes32"
        },
        {
          "indexed": false,
          "internalType": "uint256",
          "name": "issuedOn",
          "type": "uint256"
        }
      ],
      "name": "CredentialIssued",
      "type": "event"
    },
    {
      "inputs": [],
      "name": "admin",
      "outputs": [
        {
          "internalType": "address",
          "name": "",
          "type": "address"
        }
      ],
      "stateMutability": "view",
      "type": "function",
      "constant": true
    },
    {
      "inputs": [
        {
          "internalType": "address",
          "name": "student",
          "type": "address"
        },
        {
          "internalType": "bytes32",
          "name": "documentHash",
          "type": "bytes32"
        }
      ],
      "name": "addCredential",
      "outputs": [],
      "stateMutability": "nonpayable",
      "type": "function"
    },
    {
      "inputs": [
        {
          "internalType": "address",
          "name": "student",
          "type": "address"
        }
      ],
      "name": "getCredentialCount",
      "outputs": [
        {
          "internalType": "uint256",
          "name": "",
          "type": "uint256"
        }
      ],
      "stateMutability": "view",
      "type": "function",
      "constant": true
    },
    {
      "inputs": [
        {
          "internalType": "address",
          "name": "student",
          "type": "address"
        },
        {
          "internalType": "bytes32",
          "name": "documentHash",
          "type": "bytes32"
        }
      ],
      "name": "verifyCredential",
      "outputs": [
        {
          "internalType": "bool",
          "name": "",
          "type": "bool"
        }
      ],
      "stateMutability": "view",
      "type": "function",
      "constant": true
    }
  ],
  "bytecode": "0x608060405234801561001057600080fd5b50336000806101000a81548173ffffffffffffffffffffffffffffffffffffffff021916908373ffffffffffffffffffffffffffffffffffffffff160217905550610705806100606000396000f3fe608060405234801561001057600080fd5b506004361061004c5760003560e01c80632d405995146100515780635f889e1714610081578063aae8d019146100b1578063f851a440146100cd575b600080fd5b61006b60048036038101906100669190610417565b6100eb565b604051610078919061045d565b60405180910390f35b61009b600480360381019061009691906104ae565b610137565b6040516100a89190610509565b60405180910390f35b6100cb60048036038101906100c691906104ae565b61021b565b005b6100d5610390565b6040516100e29190610533565b60405180910390f35b6000600160008373ffffffffffffffffffffffffffffffffffffffff1673ffffffffffffffffffffffffffffffffffffffff168152602001908152602001600020805490509050919050565b600080600090505b600160008573ffffffffffffffffffffffffffffffffffffffff1673ffffffffffffffffffffffffffffffffffffffff1681526020019081526020016000208054905081101561020f5782600160008673ffffffffffffffffffffffffffffffffffffffff1673ffffffffffffffffffffffffffffffffffffffff16815260200190815260200160002082815481106101db576101da61054e565b5b906000526020600020906002020160000154036101fc576001915050610215565b8080610207906105ac565b91505061013f565b50600090505b92915050565b60008054906101000a900473ffffffffffffffffffffffffffffffffffffffff1673ffffffffffffffffffffffffffffffffffffffff163373ffffffffffffffffffffffffffffffffffffffff16146102a9576040517f08c379a00000000000000000000000000000000000000000000000000000000081526004016102a090610677565b60405180910390fd5b600160008373ffffffffffffffffffffffffffffffffffffffff1673ffffffffffffffffffffffffffffffffffffffff1681526020019081526020016000206040518060400160405280838152602001428152509080600181540180825580915050600190039060005260206000209060020201600090919091909150600082015181600001556020820151816001015550508173ffffffffffffffffffffffffffffffffffffffff167f266d5d1db5669b001451ba44353e35547ee39964af029c43340fe64dd3f9ee6d82426040516103849291906106a6565b60405180910390a25050565b60008054906101000a900473ffffffffffffffffffffffffffffffffffffffff1681565b600080fd5b600073ffffffffffffffffffffffffffffffffffffffff82169050919050565b60006103e4826103b9565b9050919050565b6103f4816103d9565b81146103ff57600080fd5b50565b600081359050610411816103eb565b92915050565b60006020828403121561042d5761042c6103b4565b5b600061043b84828501610402565b91505092915050565b6000819050919050565b61045781610444565b82525050565b6000602082019050610472600083018461044e565b92915050565b6000819050919050565b61048b81610478565b811461049657600080fd5b50565b6000813590506104a881610482565b92915050565b600080604083850312156104c5576104c46103b4565b5b60006104d385828601610402565b92505060206104e485828601610499565b9150509250929050565b60008115159050919050565b610503816104ee565b82525050565b600060208201905061051e60008301846104fa565b92915050565b61052d816103d9565b82525050565b60006020820190506105486000830184610524565b92915050565b7f4e487b7100000000000000000000000000000000000000000000000000000000600052603260045260246000fd5b7f4e487b7100000000000000000000000000000000000000000000000000000000600052601160045260246000fd5b60006105b782610444565b91507fffffffffffffffffffffffffffffffffffffffffffffffffffffffffffffffff82036105e9576105e861057d565b5b600182019050919050565b600082825260208201905092915050565b7f4f6e6c792061646d696e2063616e20706572666f726d2074686973206163746960008201527f6f6e000000000000000000000000000000000000000000000000000000000000602082015250565b60006106616022836105f4565b915061066c82610605565b604082019050919050565b6000602082019050818103600083015261069081610654565b9050919050565b6106a081610478565b82525050565b60006040820190506106bb6000830185610697565b6106c8602083018461044e565b939250505056fea2646970667358221220a03580d0a0b32abe9b10b703c8483aebf39ac7d2cd553a99670fdf3e9b0eb8c764736f6c63430008140033",
  "immutableReferences": {},
  "source": "//SPDX-License-Identifier: MIT\r\npragma solidity ^0.8.20;\r\n\r\ncontract ScholarLedger {\r\n\r\n    // Address of the University/admin\r\n    address public admin;\r\n\r\n    // Structure to store credential details\r\n    struct Credential {\r\n        bytes32 documentHash;\r\n        uint256 issuedOn;\r\n    }\r\n\r\n    // Mapping: Student address => list of credentials\r\n    mapping(address => Credential[]) private studentCredentials;\r\n\r\n    // Events for transparency and logging\r\n    event CredentialIssued (address indexed student, bytes32 documentHash, uint256 issuedOn);\r\n\r\n    //Modifier to restrict access to admin only\r\n    modifier onlyAdmin() {\r\n        require(msg.sender == admin, \"Only admin can perform this action\");\r\n        _;\r\n    }\r\n\r\n    // Constructor sets the admin as contract deployer\r\n    constructor() {\r\n        admin = msg.sender;\r\n    }\r\n\r\n    //Function to issue a credential to a student\r\n    function addCredential(address student, bytes32 documentHash) public onlyAdmin {\r\n        studentCredentials[student].push(\r\n            Credential(documentHash, block.timestamp)\r\n        );\r\n\r\n        emit CredentialIssued(student, documentHash, block.timestamp);\r\n    }\r\n\r\n    //Get total number of credentials for a student\r\n    function getCredentialCount(address student) public view returns (uint256) {\r\n        return studentCredentials[student].length;\r\n    }\r\n\r\n\r\n    //Verify if a credential hash exists for a student\r\n    function verifyCredential(address student, bytes32 documentHash) public view returns (bool) {\r\n        for (uint256 i = 0; i < studentCredentials[student].length; i++) {\r\n            if (studentCredentials[student][i].documentHash == documentHash) {\r\n                return true;\r\n            }\r\n        }\r\n        return false;\r\n    }\r\n}",
  "sourcePath": "C:\\Users\\Prince Kumar Singh\\scholar-ledger\\blockchain\\contracts\\ScholarLedger.sol",
  "compiler": {
    "name": "solc",
    "version": "0.8.20+commit.a1b79de6.Emscripten.clang"
  },
  "schemaVersion": "3.4.16",
  "updatedAt": "2026-01-30T05:33:29.215Z",
  "networkType": "ethereum",
  "devdoc": {
    "kind": "dev",
    "methods": {},
    "version": 1
  },
  "userdoc": {
    "kind": "user",
    "methods": {},
    "version": 1
  }
}