{
  "contractName": "ScholarLedger",
  "abi": [
    {
      "inputs": [],
      "stateMutability": "nonpayable",
      "type": "constructor"
    },
    {
      "anonymous": false,
      "inputs": [
        {
          "indexed": true,
          "internalType": "address",
          "name": "student",
          "type": "address"
        },
        {
          "indexed": true,
          "internalType": "uint256",
          "name": "index",
          "type": "uint256"
        },
        {
          "indexed": false,
          "internalType": "bytes32",
          "name": "cidHash",
          "type": "bytes32"
        },
        {
          "indexed": false,
          "internalType": "string",
          "name": "title",
          "type": "string"
        }
      ],
      "name": "CredentialIssued",
      "type": "event"
    },
    {
      "anonymous": false,
      "inputs": [
        {
          "indexed": true,
          "internalType": "address",
          "name": "student",
          "type": "address"
        },
        {
          "indexed": true,
          "internalType": "uint256",
          "name": "index",
          "type": "uint256"
        }
      ],
      "name": "CredentialRevoked",
      "type": "event"
    },
    {
      "inputs": [],
      "name": "universityAdmin",
      "outputs": [
        {
          "internalType": "address",
          "name": "",
          "type": "address"
        }
      ],
      "stateMutability": "view",
      "type": "function",
      "constant": true
    },
    {
      "inputs": [
        {
          "internalType": "address",
          "name": "student",
          "type": "address"
        },
        {
          "internalType": "bytes32",
          "name": "cidHash",
          "type": "bytes32"
        },
        {
          "internalType": "string",
          "name": "title",
          "type": "string"
        }
      ],
      "name": "issueCredential",
      "outputs": [],
      "stateMutability": "nonpayable",
      "type": "function"
    },
    {
      "inputs": [
        {
          "internalType": "address",
          "name": "student",
          "type": "address"
        },
        {
          "internalType": "uint256",
          "name": "index",
          "type": "uint256"
        }
      ],
      "name": "revokeCredential",
      "outputs": [],
      "stateMutability": "nonpayable",
      "type": "function"
    },
    {
      "inputs": [
        {
          "internalType": "address",
          "name": "student",
          "type": "address"
        }
      ],
      "name": "getCredentialCount",
      "outputs": [
        {
          "internalType": "uint256",
          "name": "",
          "type": "uint256"
        }
      ],
      "stateMutability": "view",
      "type": "function",
      "constant": true
    },
    {
      "inputs": [
        {
          "internalType": "address",
          "name": "student",
          "type": "address"
        },
        {
          "internalType": "uint256",
          "name": "index",
          "type": "uint256"
        }
      ],
      "name": "getCredential",
      "outputs": [
        {
          "internalType": "bytes32",
          "name": "cidHash",
          "type": "bytes32"
        },
        {
          "internalType": "string",
          "name": "title",
          "type": "string"
        },
        {
          "internalType": "uint256",
          "name": "issuedOn",
          "type": "uint256"
        },
        {
          "internalType": "bool",
          "name": "revoked",
          "type": "bool"
        },
        {
          "internalType": "address",
          "name": "issuer",
          "type": "address"
        }
      ],
      "stateMutability": "view",
      "type": "function",
      "constant": true
    },
    {
      "inputs": [
        {
          "internalType": "address",
          "name": "student",
          "type": "address"
        },
        {
          "internalType": "bytes32",
          "name": "cidHash",
          "type": "bytes32"
        }
      ],
      "name": "verifyCredential",
      "outputs": [
        {
          "internalType": "bool",
          "name": "",
          "type": "bool"
        }
      ],
      "stateMutability": "view",
      "type": "function",
      "constant": true
    }
  ],
  "bytecode": "0x608060405234801561001057600080fd5b50336000806101000a81548173ffffffffffffffffffffffffffffffffffffffff021916908373ffffffffffffffffffffffffffffffffffffffff160217905550611404806100606000396000f3fe608060405234801561001057600080fd5b50600436106100625760003560e01c80632d405995146100675780635f889e17146100975780637106b2fc146100c75780637c4f4e0b146100e3578063acc5bb8114610117578063e092911114610133575b600080fd5b610081600480360381019061007c9190610b2c565b610151565b60405161008e9190610b72565b60405180910390f35b6100b160048036038101906100ac9190610bc3565b61019d565b6040516100be9190610c1e565b60405180910390f35b6100e160048036038101906100dc9190610c65565b6103d9565b005b6100fd60048036038101906100f89190610c65565b6105ad565b60405161010e959493929190610d53565b60405180910390f35b610131600480360381019061012c9190610e12565b6107ed565b005b61013b610aa0565b6040516101489190610e86565b60405180910390f35b6000600160008373ffffffffffffffffffffffffffffffffffffffff1673ffffffffffffffffffffffffffffffffffffffff168152602001908152602001600020805490509050919050565b600080600160008573ffffffffffffffffffffffffffffffffffffffff1673ffffffffffffffffffffffffffffffffffffffff168152602001908152602001600020805480602002602001604051908101604052809291908181526020016000905b8282101561034857838290600052602060002090600402016040518060a00160405290816000820154815260200160018201805461023c90610ed0565b80601f016020809104026020016040519081016040528092919081815260200182805461026890610ed0565b80156102b55780601f1061028a576101008083540402835291602001916102b5565b820191906000526020600020905b81548152906001019060200180831161029857829003601f168201915b50505050508152602001600282015481526020016003820160009054906101000a900460ff161515151581526020016003820160019054906101000a900473ffffffffffffffffffffffffffffffffffffffff1673ffffffffffffffffffffffffffffffffffffffff1673ffffffffffffffffffffffffffffffffffffffff1681525050815260200190600101906101ff565b50505050905060005b81518110156103cc578382828151811061036e5761036d610f01565b5b6020026020010151600001511480156103a957506000151582828151811061039957610398610f01565b5b6020026020010151606001511515145b156103b9576001925050506103d3565b80806103c490610f5f565b915050610351565b5060009150505b92915050565b60008054906101000a900473ffffffffffffffffffffffffffffffffffffffff1673ffffffffffffffffffffffffffffffffffffffff163373ffffffffffffffffffffffffffffffffffffffff1614610467576040517f08c379a000000000000000000000000000000000000000000000000000000000815260040161045e90610ff3565b60405180910390fd5b600160008373ffffffffffffffffffffffffffffffffffffffff1673ffffffffffffffffffffffffffffffffffffffff1681526020019081526020016000208054905081106104eb576040517f08c379a00000000000000000000000000000000000000000000000000000000081526004016104e29061105f565b60405180910390fd5b60018060008473ffffffffffffffffffffffffffffffffffffffff1673ffffffffffffffffffffffffffffffffffffffff168152602001908152602001600020828154811061053d5761053c610f01565b5b906000526020600020906004020160030160006101000a81548160ff021916908315150217905550808273ffffffffffffffffffffffffffffffffffffffff167ff2fcadf579f414e0330984b542cd6af76f79cc0213bfd8d53adf88364f1d262160405160405180910390a35050565b600060606000806000600160008873ffffffffffffffffffffffffffffffffffffffff1673ffffffffffffffffffffffffffffffffffffffff16815260200190815260200160002080549050861061063a576040517f08c379a00000000000000000000000000000000000000000000000000000000081526004016106319061105f565b60405180910390fd5b6000600160008973ffffffffffffffffffffffffffffffffffffffff1673ffffffffffffffffffffffffffffffffffffffff168152602001908152602001600020878154811061068d5761068c610f01565b5b90600052602060002090600402016040518060a0016040529081600082015481526020016001820180546106c090610ed0565b80601f01602080910402602001604051908101604052809291908181526020018280546106ec90610ed0565b80156107395780601f1061070e57610100808354040283529160200191610739565b820191906000526020600020905b81548152906001019060200180831161071c57829003601f168201915b50505050508152602001600282015481526020016003820160009054906101000a900460ff161515151581526020016003820160019054906101000a900473ffffffffffffffffffffffffffffffffffffffff1673ffffffffffffffffffffffffffffffffffffffff1673ffffffffffffffffffffffffffffffffffffffff168152505090508060000151816020015182604001518360600151846080015195509550955095509550509295509295909350565b60008054906101000a900473ffffffffffffffffffffffffffffffffffffffff1673ffffffffffffffffffffffffffffffffffffffff163373ffffffffffffffffffffffffffffffffffffffff161461087b576040517f08c379a000000000000000000000000000000000000000000000000000000000815260040161087290610ff3565b60405180910390fd5b600160008573ffffffffffffffffffffffffffffffffffffffff1673ffffffffffffffffffffffffffffffffffffffff1681526020019081526020016000206040518060a0016040528085815260200184848080601f016020809104026020016040519081016040528093929190818152602001838380828437600081840152601f19601f8201169050808301925050505050505081526020014281526020016000151581526020013373ffffffffffffffffffffffffffffffffffffffff168152509080600181540180825580915050600190039060005260206000209060040201600090919091909150600082015181600001556020820151816001019081610986919061125a565b506040820151816002015560608201518160030160006101000a81548160ff02191690831515021790555060808201518160030160016101000a81548173ffffffffffffffffffffffffffffffffffffffff021916908373ffffffffffffffffffffffffffffffffffffffff160217905550505060018060008673ffffffffffffffffffffffffffffffffffffffff1673ffffffffffffffffffffffffffffffffffffffff16815260200190815260200160002080549050610a48919061132c565b8473ffffffffffffffffffffffffffffffffffffffff167f6bdd92f55f48aa541f5ae91b2d82ba91217100c846892d77df5a7e3d5216c8ac858585604051610a929392919061139c565b60405180910390a350505050565b60008054906101000a900473ffffffffffffffffffffffffffffffffffffffff1681565b600080fd5b600080fd5b600073ffffffffffffffffffffffffffffffffffffffff82169050919050565b6000610af982610ace565b9050919050565b610b0981610aee565b8114610b1457600080fd5b50565b600081359050610b2681610b00565b92915050565b600060208284031215610b4257610b41610ac4565b5b6000610b5084828501610b17565b91505092915050565b6000819050919050565b610b6c81610b59565b82525050565b6000602082019050610b876000830184610b63565b92915050565b6000819050919050565b610ba081610b8d565b8114610bab57600080fd5b50565b600081359050610bbd81610b97565b92915050565b60008060408385031215610bda57610bd9610ac4565b5b6000610be885828601610b17565b9250506020610bf985828601610bae565b9150509250929050565b60008115159050919050565b610c1881610c03565b82525050565b6000602082019050610c336000830184610c0f565b92915050565b610c4281610b59565b8114610c4d57600080fd5b50565b600081359050610c5f81610c39565b92915050565b60008060408385031215610c7c57610c7b610ac4565b5b6000610c8a85828601610b17565b9250506020610c9b85828601610c50565b9150509250929050565b610cae81610b8d565b82525050565b600081519050919050565b600082825260208201905092915050565b60005b83811015610cee578082015181840152602081019050610cd3565b60008484015250505050565b6000601f19601f8301169050919050565b6000610d1682610cb4565b610d208185610cbf565b9350610d30818560208601610cd0565b610d3981610cfa565b840191505092915050565b610d4d81610aee565b82525050565b600060a082019050610d686000830188610ca5565b8181036020830152610d7a8187610d0b565b9050610d896040830186610b63565b610d966060830185610c0f565b610da36080830184610d44565b9695505050505050565b600080fd5b600080fd5b600080fd5b60008083601f840112610dd257610dd1610dad565b5b8235905067ffffffffffffffff811115610def57610dee610db2565b5b602083019150836001820283011115610e0b57610e0a610db7565b5b9250929050565b60008060008060608587031215610e2c57610e2b610ac4565b5b6000610e3a87828801610b17565b9450506020610e4b87828801610bae565b935050604085013567ffffffffffffffff811115610e6c57610e6b610ac9565b5b610e7887828801610dbc565b925092505092959194509250565b6000602082019050610e9b6000830184610d44565b92915050565b7f4e487b7100000000000000000000000000000000000000000000000000000000600052602260045260246000fd5b60006002820490506001821680610ee857607f821691505b602082108103610efb57610efa610ea1565b5b50919050565b7f4e487b7100000000000000000000000000000000000000000000000000000000600052603260045260246000fd5b7f4e487b7100000000000000000000000000000000000000000000000000000000600052601160045260246000fd5b6000610f6a82610b59565b91507fffffffffffffffffffffffffffffffffffffffffffffffffffffffffffffffff8203610f9c57610f9b610f30565b5b600182019050919050565b7f4f6e6c792061646d696e20616c6c6f7765640000000000000000000000000000600082015250565b6000610fdd601283610cbf565b9150610fe882610fa7565b602082019050919050565b6000602082019050818103600083015261100c81610fd0565b9050919050565b7f496e76616c696420696e64657800000000000000000000000000000000000000600082015250565b6000611049600d83610cbf565b915061105482611013565b602082019050919050565b600060208201905081810360008301526110788161103c565b9050919050565b7f4e487b7100000000000000000000000000000000000000000000000000000000600052604160045260246000fd5b60008190508160005260206000209050919050565b60006020601f8301049050919050565b600082821b905092915050565b6000600883026111107fffffffffffffffffffffffffffffffffffffffffffffffffffffffffffffffff826110d3565b61111a86836110d3565b95508019841693508086168417925050509392505050565b6000819050919050565b600061115761115261114d84610b59565b611132565b610b59565b9050919050565b6000819050919050565b6111718361113c565b61118561117d8261115e565b8484546110e0565b825550505050565b600090565b61119a61118d565b6111a5818484611168565b505050565b5b818110156111c9576111be600082611192565b6001810190506111ab565b5050565b601f82111561120e576111df816110ae565b6111e8846110c3565b810160208510156111f7578190505b61120b611203856110c3565b8301826111aa565b50505b505050565b600082821c905092915050565b600061123160001984600802611213565b1980831691505092915050565b600061124a8383611220565b9150826002028217905092915050565b61126382610cb4565b67ffffffffffffffff81111561127c5761127b61107f565b5b6112868254610ed0565b6112918282856111cd565b600060209050601f8311600181146112c457600084156112b2578287015190505b6112bc858261123e565b865550611324565b601f1984166112d2866110ae565b60005b828110156112fa578489015182556001820191506020850194506020810190506112d5565b868310156113175784890151611313601f891682611220565b8355505b6001600288020188555050505b505050505050565b600061133782610b59565b915061134283610b59565b925082820390508181111561135a57611359610f30565b5b92915050565b82818337600083830152505050565b600061137b8385610cbf565b9350611388838584611360565b61139183610cfa565b840190509392505050565b60006040820190506113b16000830186610ca5565b81810360208301526113c481848661136f565b905094935050505056fea2646970667358221220cef5392eab9f7f00f9e54dbb255dc7e723642e8a6db3b1a4332343d145e4a29164736f6c63430008140033",
  "immutableReferences": {},
  "source": "// SPDX-License-Identifier: MIT\r\npragma solidity ^0.8.20;\r\n\r\ncontract ScholarLedger {\r\n\r\n    /* ========== ROLES ========== */\r\n\r\n    address public universityAdmin;\r\n\r\n    modifier onlyAdmin() {\r\n        require(msg.sender == universityAdmin, \"Only admin allowed\");\r\n        _;\r\n    }\r\n\r\n    /* ========== DATA STRUCTURES ========== */\r\n\r\n    struct Credential {\r\n        bytes32 cidHash;        // keccak256(IPFS CID)\r\n        string title;           // e.g. \"BTech Semester 6\"\r\n        uint256 issuedOn;\r\n        bool revoked;\r\n        address issuer;\r\n    }\r\n\r\n    // student address => credentials\r\n    mapping(address => Credential[]) private studentCredentials;\r\n\r\n    /* ========== EVENTS ========== */\r\n\r\n    event CredentialIssued(\r\n        address indexed student,\r\n        uint256 indexed index,\r\n        bytes32 cidHash,\r\n        string title\r\n    );\r\n\r\n    event CredentialRevoked(\r\n        address indexed student,\r\n        uint256 indexed index\r\n    );\r\n\r\n    /* ========== CONSTRUCTOR ========== */\r\n\r\n    constructor() {\r\n        universityAdmin = msg.sender;\r\n    }\r\n\r\n    /* ========== ADMIN FUNCTIONS ========== */\r\n\r\n    function issueCredential(\r\n        address student,\r\n        bytes32 cidHash,\r\n        string calldata title\r\n    ) external onlyAdmin {\r\n\r\n        studentCredentials[student].push(\r\n            Credential({\r\n                cidHash: cidHash,\r\n                title: title,\r\n                issuedOn: block.timestamp,\r\n                revoked: false,\r\n                issuer: msg.sender\r\n            })\r\n        );\r\n\r\n        emit CredentialIssued(\r\n            student,\r\n            studentCredentials[student].length - 1,\r\n            cidHash,\r\n            title\r\n        );\r\n    }\r\n\r\n    function revokeCredential(\r\n        address student,\r\n        uint256 index\r\n    ) external onlyAdmin {\r\n\r\n        require(index < studentCredentials[student].length, \"Invalid index\");\r\n        studentCredentials[student][index].revoked = true;\r\n\r\n        emit CredentialRevoked(student, index);\r\n    }\r\n\r\n    /* ========== READ FUNCTIONS (FOR UI) ========== */\r\n\r\n    function getCredentialCount(address student)\r\n        external\r\n        view\r\n        returns (uint256)\r\n    {\r\n        return studentCredentials[student].length;\r\n    }\r\n\r\n    function getCredential(\r\n        address student,\r\n        uint256 index\r\n    )\r\n        external\r\n        view\r\n        returns (\r\n            bytes32 cidHash,\r\n            string memory title,\r\n            uint256 issuedOn,\r\n            bool revoked,\r\n            address issuer\r\n        )\r\n    {\r\n        require(index < studentCredentials[student].length, \"Invalid index\");\r\n\r\n        Credential memory c = studentCredentials[student][index];\r\n\r\n        return (\r\n            c.cidHash,\r\n            c.title,\r\n            c.issuedOn,\r\n            c.revoked,\r\n            c.issuer\r\n        );\r\n    }\r\n\r\n    function verifyCredential(\r\n        address student,\r\n        bytes32 cidHash\r\n    )\r\n        external\r\n        view\r\n        returns (bool)\r\n    {\r\n        Credential[] memory creds = studentCredentials[student];\r\n\r\n        for (uint256 i = 0; i < creds.length; i++) {\r\n            if (\r\n                creds[i].cidHash == cidHash &&\r\n                creds[i].revoked == false\r\n            ) {\r\n                return true;\r\n            }\r\n        }\r\n        return false;\r\n    }\r\n}\r\n",
  "sourcePath": "C:\\Users\\Prince Kumar Singh\\scholar-ledger\\blockchain\\contracts\\ScholarLedger.sol",
  "compiler": {
    "name": "solc",
    "version": "0.8.20+commit.a1b79de6.Emscripten.clang"
  },
  "schemaVersion": "3.4.16",
  "updatedAt": "2026-02-20T14:39:23.420Z",
  "networkType": "ethereum",
  "devdoc": {
    "kind": "dev",
    "methods": {},
    "version": 1
  },
  "userdoc": {
    "kind": "user",
    "methods": {},
    "version": 1
  }
}